:020000040800F2
:1000000020120020D5000008DD000008DF000008F5
:1000100000000000000000000000000000000000E0
:10002000000000000000000000000000E1000008E7
:100030000000000000000000E3000008E5000008E8
:10004000E7000008E700000811440008E700000886
:10005000E7000008F10E0008010F0008110F00086A
:10006000E7000008E7000008E7000008E10E0008CC
:10007000E7000008E7000008E7000008E7000008C4
:10008000E7000008E7000008E700000800000000A3
:10009000E7000008E7000008E7000008E7000008A4
:1000A000E7000008E7000008E7000008E700000894
:1000B000E70000080944000800000000E70000080D
:1000C0000348854600F0AAFC00480047298700083D
:1000D000201200200448804704480047FEE7FEE75E
:1000E000FEE7FEE7FEE7FEE7356E0008C100000808
:1000F00030B50B46014600202022012409E00D46C0
:10010000D5409D4205D31D469540491B2546954047
:1001100040191546521E002DF1DC30BD70B500248B
:100120002546002801DA01244042002901DA012590
:100130004942FFF7DDFFAC4200D04042002C00D026
:10014000494270BDF0B51FB40646002082B0054696
:100150004024019100901BE0019922460F46304651
:1001600000F046FB049A059B801A994110D3104673
:100170001946224600F02CFB361A8F410197224681
:1001800001200021009F00F023FB38184D41009012
:100190002046641E0028DFDC019B00982946324679
:1001A00007B0F0BDF0B51FB486B0002000900190FC
:1001B00002900698069980B204900798090C0204F0
:1001C0000014114307900027089D099806913E46A8
:1001D0003C4603900398A9B20204000C03900498D3
:1001E0002D0C154348430021224600F0F1FAC719AF
:1001F000714110340E46402CECDB3846029A00F078
:10020000E7FA009A019B80180090594102980191E9
:10021000103002904028CCDB00980BB0F0BD0346B4
:100220000B439B0703D009E008C9121F08C0042A2A
:10023000FAD203E00B780370401C491C521EF9D21D
:100240007047D2B201E00270401C491EFBD27047D9
:100250000022F6E710B513460A4604461946FFF792
:10026000F0FF204610BD421C0178401C0029FBD144
:10027000801A704730B505460020034600E05B1C3D
:10028000934205D2EC5CC85C201A01D1002CF6D157
:1002900030BD0321001D401E037812021A43491E7F
:1002A000F9D510467047F8B502464A40D40F4200CF
:1002B0004B0052085B089A4202D202460846114699
:1002C0004A0023D0C30D4A00DDB2120EAD1A202D14
:1002D00035DA49020126490AF6058A19002C00D0B0
:1002E000524220214F1B1146B9402A411018C20D1D
:1002F0009A4221D0002C17D0012D08DCDA05801A93
:10030000D20F8019D207DBB200F09EFAF8BDDA05F1
:10031000801A012340001B06C01880185A4280181A
:10032000CA0F1043490007E04908C2071143DA0524
:10033000801A80194008801800F07EFAF8BD61002C
:100340000122511A001BF7E70122D2075140AAE708
:100350000122D2075040A6E7F0B5074608465840AC
:1003600087B0C00F049048000E4659004008490865
:10037000BC1A884105D2384631461E4617460B4600
:1003800002465800400810434CD0300D0390400501
:100390005900400D490D0590401A0290402872DA2C
:1003A00018030121000B09050843019004980092ED
:1003B000002805D001995242002088410092019006
:1003C000029840210A1A0199009800F001FA0546A6
:1003D0000C466B4607CB00F01CFAC0197141039A1A
:1003E0000E0D0023D71756401A467A40164344D0C4
:1003F000049A002A2DD0029A012A039A15DC1205CC
:10040000C01A914101263605001C7141D20F059E8C
:10041000D2070093019202962A46234600F05AFA28
:1004200007B0F0BD38463146FAE71605224A0F46B6
:10043000B218C01AB74101210905001C4F4100182C
:100440007F41114618187941E20F10436D1964413C
:1004500013E0E2076D0815436408C2071443039ACA
:1004600001261205C01A91413605001C7141CE07C4
:10047000400830434908C01851412A46234600F03D
:100480001CFACDE7FFE7049801224000C117121AB9
:1004900000238B4104983146C417381AA141EEE776
:1004A00030B40124E407634030BC55E730B4012484
:1004B000E407614030BC4FE70000E0FFF0B51FB437
:1004C00088B00B990998002448400999C00F490049
:1004D00049080991C0070B990090490049080B9100
:1004E00009990898A64608431CD00B990A98084316
:1004F00018D0099801244000420D4800410D099888
:1005000024050003000B204309900B980003000B07
:1005100020430B9050181C494018002201901446AB
:10052000104605E0002001460DB0F0BD032801DAB9
:10053000034600E003239C46C11A0AAE0AE05F00AE
:1005400008ADED5B4F00F75B7D430027AA187C41A7
:10055000491C5B1E6145F2DD410004AB5A52210487
:10056000120C0A43240C401C0828DFDB019802907F
:100570000099704601910090059B049A079906988E
:1005800000F0A8F9D0E700000DFCFFFFF0B50C4625
:100590005C4085B0E40FE40703944C000026640837
:1005A00059009446490802460296224321D06246E9
:1005B0000A431ED06200570D4A000E032303550D57
:1005C000012402462C492405781B1B0B360B4018CE
:1005D00023432643614600901C46501AB44103D37E
:1005E0000098401C009002E0921800985B4100289F
:1005F00003DA0020014605B0F0BD00200121090505
:100600000746864611E064461D46141BB54106D3D5
:100610006546521BB341744607430C43A646CD07BB
:1006200040084908284392185B4105460D43EAD12A
:100630001046184313D06046194650407140084395
:1006400006D06046101AB34106D20122002306E00C
:1006500000220123DB0702E00122D243531000985D
:1006600074460105381C6141029C039D00196941D3
:1006700000F023F9BFE70000FD03000070B54B0058
:100680005B0803430BD04B005C0D002633466542EC
:10069000B341D417AD1AA34102DB0020014670BD5F
:1006A00012053018514170BD10B500229623114635
:1006B00000F0CAF810BD00000EB5C217C10F5040BF
:1006C000CA0740180021054B0293019200910A4687
:1006D0000B4600F0FFF803B000BD0000330400003B
:1006E0000EB505490291002100910A460B46019181
:1006F00000F0F0F803B000BD3304000070B5CD0F7A
:100700004A0009030123090B1B0519430B4BED0795
:100710000024520D9A4201DA002070BD074B343399
:100720009A4203DC9A1A00F063F802E00449511877
:1007300088402C43F1D0404270BD0000FF03000010
:10074000CDFBFFFF4A0009030123090B1B051943D9
:10075000094B10B5520D9A4201DA002010BD064B2C
:1007600034339A4203DC9A1A00F042F810BD034970
:100770005118884010BD0000FF030000CDFBFFFFB3
:10078000C20FD207400040080BD0C10D0723DB0188
:10079000C91840020905400A1143C2084007114325
:1007A000704700200146704710B5002904DB012482
:1007B000E40740428C412146002B04DB1C46012308
:1007C000DB075242A341994200D1904210BD000084
:1007D00010B5202A04DB0146203A9140002010BDCC
:1007E000914020239C1A0346E3401943904010BDDA
:1007F00010B5202A04DB0846203AD040002110BD65
:100800000B46D340D0402024A21A914008431946F9
:1008100010BD10B5202A06DBCB170846203A104140
:10082000C1170B4306E00B461341D0402024A21A07
:1008300091400843194610BD002904DA401C4900C4
:1008400001D140084000704770B40024050C05D168
:100850001024000402D1002921D01124050E01D159
:1008600000020834050F01D10001241D850F01D1BC
:100870008000A41C002801DB4000641C002908D073
:1008800020252E1B0D46F540A14000D00121294313
:10089000084301061B1B000ADB1D02D5002070BCAB
:1008A0007047DB05181880180029F8DA401C490049
:1008B000F5D170BC40084000704710B5002B08DA35
:1008C0000024401C614192185B411A4301D1400849
:1008D000400010BDF0B51FB482B005460C0003D037
:1008E000084606F031FE02E006F02EFE20300246F9
:1008F000009021462846FFF76BFF049B059A0446AB
:100900000F4618431143084314D0184610431BD018
:10091000009840210A1A18460599FFF769FF054615
:100920000E46009A05990498FFF752FF084305D038
:10093000012004E02046394607B0F0BD0020C11771
:1009400005430E432C43374300990E986305401A24
:100950007905E40A00220C43FD0A0A3002D5002082
:100960000146E9E70105101969410C9C0D9D00192C
:100970006941FFF7A2FFDFE7F8B5054648004008E8
:100980000C46284304D06000184A400D904201DD17
:100990002846F8BD15493539884210DC88420BDB02
:1009A000290D200308432903014305D0E00F104916
:1009B000C00741180020F8BD00200146F8BD161AF6
:1009C0004020821B28462146FFF702FF0746009180
:1009D000284621463246FFF70BFF3A46009BFFF7B9
:1009E0006CFF3246FFF7F4FEF8BD00003304000050
:1009F0000000F03F10B5002904DB0124E407404269
:100A00008C412146002B04DB1C460123DB075242AC
:100A1000A3418B4200D1824210BD0000064C01254B
:100A2000064E05E0E36807CC2B430C3C9847103496
:100A3000B442F7D3FFF748FB50AB000870AB000897
:100A400070B58C180578401C6B075B0F01D10378DB
:100A5000401C2A1106D10278401C03E006780E7073
:100A6000401C491C5B1EF9D12B0705D40023521EE4
:100A70000DD40B70491CFAE70378401CCB1A921C6A
:100A800003E01D780D70491C5B1C521EF9D5A14274
:100A9000D8D3002070BDF0B589B00C4607461022AF
:100AA0000021684607F078FE69462246084606F0AF
:100AB00096FD6846007887260106684600290FDA09
:100AC00000214318425C5B785200DB091A43425410
:100AD000491C0F29F5DBC17B0246490071400DE03E
:100AE00000214318425C5B785200DB091A434254F0
:100AF000491C0F29F5DBC17B02464900D173E21D79
:100B0000F9325169102912D0017809061BD500214C
:100B10004518435C6D785B00ED092B434354491C39
:100B20000F29F5DBC17B03464900714019E0002124
:100B30006218FF3201325378455C491C6B40537098
:100B40001029F5DB26E000214518435C6D785B0039
:100B5000ED092B434354491C0F29F5DBC17B0346A8
:100B60004900D973E11D55698023FA316B54002582
:100B700000E05D5453695B1C5361102BF9D30021D5
:100B80006218FF3201325378455C491C6B40537048
:100B90001029F5DB002162181046FF32E0300132E7
:100BA000437C5278491C534043741029F3DB21469F
:100BB0001022F13104A807F0D7FD2246394604A8D7
:100BC00006F00DFD10220021684607F0E5FD09B092
:100BD000F0BD10B5044610220021F13007F0DCFD15
:100BE000FF20002115300151F022204607F0D4FDEE
:100BF00010BD0B4610B502461021184606F01AFD2E
:100C000010BDF0B50446FF308BB00F4601300890A0
:100C1000E11D4069FA31009110391546079100280D
:100C200043D010210E1AAE4200D316460099B2B23C
:100C30004018394607F098FD0898089940698019CE
:100C4000486110283AD3B54238D0002162181046C6
:100C5000FF32E0300132437C5278491C53404374E8
:100C60001029F3DB07992246084606F0B8FCBF19A5
:100C7000AD1B1AE000202118E0314A7C3B5C401C8F
:100C80005A404A741028F6DB102202A8079907F090
:100C90006BFD02A92246084606F0A1FC102202A91B
:100CA000079807F061FD103D1037102DE2D8AAB269
:100CB0003946009807F058FD089845610BB0F0BD23
:100CC000F7B52B498022497A294B511ACDB2197AAE
:100CD0005B7A8026F31A0A46DEB2871E491C01247D
:100CE000C9B2761E3B0006F05EFC09060C06161A19
:100CF0000C2906363F001E4BAA4237D21D4CA05489
:100D000007E01B4BB24231DA1A4CA05401986054F0
:100D1000491C19721AE0164BB2421FDB26E0144E32
:100D2000AD1EAA4222DA134B985401985854491C1C
:100D3000C8B202991954401C307207E00C4BAA4209
:100D400014D20C4CA054197206F000F80024084884
:100D50000121C1710AE0064BAA4207D2054CA054FA
:100D600001986054491CEEE70220FEBD2046FEBDFE
:100D70000C0100207E08002010B508F07BFA08F076
:100D8000F9FA10BD70B5144E0025144C0DE000F0BA
:100D900017F92168012870540CD00D280FD00A28AB
:100DA0000DD07F2913D0491C216001F0FFF80128E4
:100DB000EDD070BD0620256007F0CCFA70BD00298B
:100DC000F3D07554044807F0FDFD2560EDE70420DD
:100DD000256007F0BFFAE8E79F0400204C000020E0
:100DE000FFB5002085B0009005460646019000241E
:100DF000770007980121C05BA14008422FD0281935
:100E00000C2203905043089A1258002A27D0059AC2
:100E1000002A01D1890722D008994118082002919F
:100E20000856021100070117069840B204F00BFAA9
:100E3000002814D00298407A01010E980818C06862
:100E4000002804D00198401CC0B2019007E0009A2D
:100E50000F99039888540098401CC0B20090641CFD
:100E6000E4B2102CC5D31035761CEDB2F6B2102DBD
:100E7000BDD3109901980870009809B0F0BD00002A
:100E800010B586B0032001900020029003210520B8
:100E90006A464903000700F087FA0F48C16A49080B
:100EA0004900C1620122416B920511434163416BCC
:100EB0001140059109494B685B085B004B604B682A
:100EC0000224A3434B604B680424A3434B60416B53
:100ED0009143416306B010BD00100240005801402C
:100EE00010B508F02DF910BD10B500F093FD10BD40
:100EF00010B5012000F030FA022000F02DFA10BDEC
:100F000010B5042000F028FA082000F025FA10BDE2
:100F100010B5102000F020FA202000F01DFA40202B
:100F200000F01AFA802000F017FAFF20013000F0DC
:100F300013FA0120400200F00FFA0120800200F0B5
:100F40000BFA0120C00200F007FA0120000300F0B4
:100F500003FA0120400300F0FFF90120800300F0B4
:100F6000FBF90120C00300F0F7F910BDFEE7000017
:100F70000649800009580648091803D0C14203D029
:100F8000002070470120704702207047CC9B00086A
:100F9000702FFCFF10B5094A0021CB00D4588442C1
:100FA00007D89B189B68834203D9C8008018007932
:100FB00010BD491CC9B21529EFD3FEE7F095000812
:100FC000EFF3108172B6054AD368D05C5B1C5B07F7
:100FD0005B0F81F31088D36070470000B4050020D8
:100FE000884201D1C8B201E0401EC0B240B2704791
:100FF000C106C90E01208840014908607047000001
:1010000000E100E005490968C206D20E01209040C7
:10101000014201D0012070470020704700E200E04B
:1010200010B502F03DF910BD08B5064909684843FE
:101030000549FFF75DF800E0401E00900028FBD155
:1010400008BD00003800002040420F0008484068FA
:101050000168C907C90F07D08168C907C90F03D044
:1010600080688007C00F01D00020704701207047C2
:10107000E000002070B52A4CA068A0681025C006CA
:10108000002804DB606800F0A1FF002802D0A068FF
:10109000284343E0A068FF2101318843A060A06895
:1010A0002843A060FFF7D2FF00280BD16068012120
:1010B00002698907920092080A430261C1681822F6
:1010C0009143C160174A01211068490688430843CB
:1010D000106060688168C900C90F06D18168124A32
:1010E00011400122120711438160C1680F4A11406B
:1010F000891CC1600169C907C90F03D0016949088A
:1011000049000161426907218A430A434261A0689C
:1011100002218843A060A06801210843A06070BD3F
:10112000E000002008270140E8FFFF7F1902FEFFD2
:10113000F8B51F4C6068C1682025C907002903D095
:10114000A0682843A060F8BD01684907C90FFBD01B
:10115000606800F03BFF0028FAD1A0680121490235
:101160000843A0606068C16804260905890F00294A
:101170000BD1016801270907C90F06D000F026FF2F
:10118000002805D0A0682843A06060680660F8BD0C
:10119000606841680822914341604168B143416001
:1011A000A06851018843A060A0683843ECE70000C4
:1011B000E0000020F8B51A4E044600252F4670685E
:1011C00000F004FF002804D0B06820210843B0607C
:1011D000F8BD7068816A6203520B11438162114845
:1011E000092104401048C9062040884202D1012547
:1011F000ED050A270D48044011208006844202D1E3
:101200000120800505430A4908680322920590439E
:1012100028430860002FDBD03846FFF705FFF8BDF4
:10122000E00000200000C07C000004C8000002C4F0
:101230000827014070B5194C606800F0C7FE00280F
:101240000DD1FFF703FF164D002815D160688168A6
:10125000EA43114204D1A06810210843A06070BD88
:1012600081682940491C81600120FFF7DDFE60682C
:101270000168C907C90FFBD0A0680A490840A060EF
:10128000A068FF2101310843A06060681C21016053
:1012900081682940091D816070BD0000E0000020C8
:1012A000E8FFFF7FFEF1FFFFF8B5264C07462178E7
:1012B0000020012945D14D02284600F09FFE22481A
:1012C00041680907C90FFBD0606800F083FE6068C1
:1012D0008168C90FFCD040210091491E0091FCD1CA
:1012E00081681A4E3140491C81600168C907C90FE5
:1012F000FBD000F06BFE002804D0A068202108433A
:10130000A06008E06068816A816211490868032270
:101310009205904308603846FFF74CFFFFF78AFFBD
:10132000FFF706FF6168086C8A6880B23240921C41
:101330008A6002220A6001220A6006494A6BAA43B7
:101340004A63F8BDE000002000700040E8FFFF7F26
:10135000082701400010024010B504494A690242C2
:1013600002D0486100F0D8F810BD00000004014030
:10137000014600200A0A00D00820084A114201D084
:1013800004221043064A114201D002221043054AAA
:10139000114201D00121084370470000F0F0000025
:1013A000CCCC0000AAAA0000F8B505460B200C46DC
:1013B0000007174629180BD001208002091A09D00E
:1013C000091A0DD0814201D1082004E0802002E0FA
:1013D000012000E0022000F077FE2E4600250AE002
:1013E0000420F8E7E00704D03A462946304600F0EA
:1013F00005F864086D1C002CF4D1F8BDF8B5012384
:101400008B4054689BB2022C0CD1CC10A40027183E
:101410003C6A4D07EE0E0F25B540AC431569B5404B
:1014200025433D6201248C40A4B2644365005668A4
:101430006519012E01D0022E08D1D768866867434E
:10144000AE433E43866046689E43466057680668E2
:101450006743AE433E4306609768C6687C43AE432D
:101460002643C6605268D20044D5234A0124556BF6
:1014700025435563526B2240009205221207904289
:1014800001D1002219E01D4A904201D1012214E04D
:101490001B4A904201D102220FE01A4A904201D128
:1014A00003220AE0184A904201D1042205E0174ABB
:1014B000904201D1052200E006228807000B891026
:1014C000084301068C0D124961188C68050C0F2029
:1014D000A8408443AA4014438C600E480168194315
:1014E0000160416899434160816819438160C16826
:1014F0009943C160F8BD0000001002400004005094
:1015000000080050000C005000100050001C00505B
:10151000000001400004014010B5FFF729FF8100E1
:1015200002484058002800D0804710BD2005002008
:1015300070B51E4615460C460846FFF719FF2049B0
:10154000002E38D080000E50FF2101318C4208DA85
:10155000082C1DD005DC012C18D0022C16D0042C30
:1015600016D00720A907FF22090E002812DA034629
:10157000083B9C08134BA400E418E3698507ED0EB3
:10158000AA409343A9400B43E3610FE00520E9E73C
:101590000620E7E784080C4BA400E41823688507BD
:1015A000ED0EAA409343A9400B43236001218140E3
:1015B0000648016070BD002280000A5070BD000026
:1015C0002005002000ED00E000E400E000E100E084
:1015D000002A01D08161704781627047002A01D0E2
:1015E0008161704781627047002A01D08161704734
:1015F0008162704770B500240E48FFF755FE0E4E0D
:101600000E4D010013D00E483246008B5043FEF7BA
:101610006FFDB04201D9FE2409E0A84207D3401B68
:10162000FE2148434B210901FEF762FDC4B220466A
:1016300070BD0000000002C4B80B000008070000E5
:101640006000F81F03494A690869496A50404840E8
:10165000704700004000F81F70B51148FFF724FEE6
:10166000104C01001AD0208B0F4A5043FEF740FD6A
:1016700005460E48FFF718FE68430B49FEF738FD94
:10168000618B0522401A12035043E28B511AFEF778
:1016900045FD0F214902401880B270BD0025E8E7E2
:1016A000000004C86000F81FB80B000000000448E8
:1016B00009490B694A69496A59180B0EC3710B0C29
:1016C00083710B0A43710171110EC170110C81708D
:1016D000110A4170027070474000F81F10B586B0C3
:1016E00014216846FEF7B4FD03200190002002900B
:1016F00005206A4610490007FFF756FE0F4C6A4660
:1017000021460F48FFF750FE6A4621460D48FFF775
:101710004BFE6A4621460C48FFF746FE012000F0CA
:10172000CBFC022000F0C8FC042000F0C5FC8020A7
:1017300000F0C2FC06B010BDFF9F0000FFFF0000DC
:101740000004005000080050001C005070B5114CFF
:10175000607800281DD120780126002811D175025B
:101760002670284600F04AFCFFF784FC606800F011
:1017700031FC60688168C90FFCD00748416BA94300
:10178000416306480068804700F0AAFB00F0D4F9E6
:10179000667070BDE000002000100240A0960008B6
:1017A00008B5104908680222104308600E48CA03B1
:1017B000836B13438363806B104000900B48026877
:1017C00010239A430260026843151A4302600A68B4
:1017D00008231A430A600168021511430160FFF7EC
:1017E0007DFF08BD00200240001002400070004054
:1017F00070B50120000700F0F5FB00F0B1FC1448C3
:101800000168C905C90FFBD01248016903221204FF
:10181000012311401B04994219D0016905699143C4
:10182000DC00254305610569A54305610161890562
:101830000DD501698905FCD5064940390C68032599
:101840002D05AC430C60016991431943016170BDE2
:10185000007000404010024010B500F01BFC002852
:1018600008D1012000F01EFC00F014FC012801D07A
:10187000FFF77CFB194CE068F0218843E06000F042
:10188000CBFC002801D1FFF771FB032000F0CCFC5A
:1018900000F098FC0C28FBD100F0FCFB002808D0DD
:1018A000012000F0FFFB00F0F5FB012801D0FFF75D
:1018B0005DFBE068072109028843E060E068C90039
:1018C0008843E06002F082FDE168054A0906090FDD
:1018D000515CC8400349086010BD00000010024080
:1018E0001497000838000020F8B500271649012594
:1018F0002D07896B3E462846884303D0284600F0D2
:1019000071FB0127114C2068C005C00F06D100F003
:1019100027FC01262068C005C00FFBD00A484030D4
:10192000026981150A43026102699205FCD5002E05
:1019300002D0206888432060002F03D00248816BCA
:10194000A9438163F8BD0000001002400070004010
:1019500010B500F037FC1B4C04280CD00C2804D127
:10196000E06801210904084205D000F033FC20683A
:101970004007C00FFBD060681F2109028843012186
:1019800009030843606000F01DFC0C2817D0206894
:10199000012109068843206000F03EFC0028FBD1AD
:1019A000E068FD21090488431121C9040843E0606F
:1019B00000F028FC00F030FC0028FBD010BDFFF741
:1019C000D5FA10BD0010024001090A220007514358
:1019D000000F0818C0B2704710B50A21FEF788FB47
:1019E00000010843C0B210BD0948CA214162532119
:1019F00041628168821591438160816882149143BC
:101A00008160C168C907C90FFBD0FF2141627047DF
:101A10000028004070B5410EC0017D220023FEF772
:101A200091FB054600F080F8044600E000BF00F09E
:101A30007BF8001BA842F9D370BD0000F8B505463D
:101A40002C480C46816A06684768826A8A42F9D146
:101A500088B2A060B002800EFFF7B6FF207170045C
:101A6000400EFFF7B1FF60717006400EFFF7ACFF4C
:101A7000A0710120800506403804400F26602870C0
:101A8000F804C00EFFF7A0FF6870B806800EFFF7DD
:101A90009BFFA8703802000EFFF796FFFF216E3102
:101AA000C21C41439208E87051186A780023561E00
:101AB00003E0114FFF5C79185B1C9E42F9D8800748
:101AC00002D1032A00D3491CA878491E4018217965
:101AD0001822504308183C2148436179074A4018AE
:101AE0003C214843A1794018A1688002511A40184E
:101AF000F8BD0000002800404C9B0008FF030000D8
:101B0000032070470148006870470000600500200E
:101B10001FB5694603A8FFF791FF0249096804B0A1
:101B2000401A10BD600500201FB5694603A8FFF7E5
:101B300085FF04B010BD000010B5064C20780028C9
:101B400007D100F043F8FFF74FFF00F0ADF8012098
:101B5000207010BD5000002010B50021042000F0BE
:101B6000B9FD01200849400448610848C168C90519
:101B7000C90F07D0C16880221140FF398239C16086
:101B800005F0DAFB10BD0000000401400028004011
:101B900070B50446FFF7BCFF211A0B4D0220285EEA
:101BA000C01C814201D9002100E00121042000F085
:101BB00091FD00F067FD012802D10220285E241A61
:101BC000204600F07DF870BD50000020F8B5FFF70A
:101BD0008BFEFFF70DFE2C48016901229204114390
:101BE00001612A490868FF2702263A0490430860E9
:101BF000274904200860274CCA2060625320606295
:101C0000204600F01BFBA06840218843A060A0682C
:101C1000032149058843A060A068F1048843A060BF
:101C20001D492069C00BC0030843206120697F2142
:101C3000090488431F210904084320618025ED43DE
:101C4000E560E06CB043E064E06C40084000E064B4
:101C5000204600F0F3FA11496068114A1040084329
:101C6000606020680F4908402060E560A068800639
:101C7000C00F02D1204600F007FBA06820210843D6
:101C8000A0606762F8BD00004010024000E400E080
:101C900000E100E000280040FF03000001C1000057
:101CA000C00000FF808080FF10B5044C2046211D3D
:101CB0001030FFF7C3FE206010BD0000600500205B
:101CC000F0B50446614885B0011D0EC901AD0EC5D1
:101CD0000069009000F0CAF85D480399A20A401A12
:101CE000A105890D081881B2684686785948434293
:101CF00002E01218761CB6B29A42FAD26846E12384
:101D0000007A1B0102E0D21A401C80B29A42FAD239
:101D10006B465D7A02E06D1CADB23C3A3C2AFAD2C9
:101D20009B7A9A1897B20122920203E0891A7F1CCB
:101D300089B2BFB29142F9D203E03C3F6D1CBFB201
:101D4000ADB23C2FF9D203E03C3D401CADB280B2B5
:101D50003C2DF9D203E01838761C80B2B6B21828B0
:101D6000F9D26C4663783C4AE4789A5CA40706D1C1
:101D7000022B04D1521CD2B201E0B31A9EB2964299
:101D8000FBD8364CCA22626253226262A268A31553
:101D90009A43A260E26880231A40FF3A823AE260E6
:101DA000E268D207D20FFBD0294A511A626CD20BDB
:101DB000D2030A436264616C0F221206914305222A
:101DC000520611436164C0B2FFF706FE0090E8B20C
:101DD000FFF702FE0546F8B2FFF7FEFD0246009847
:101DE00001990004084329020843E16910431C4A91
:101DF00011400143E161E069D1058843E061F0B23F
:101E0000FFF7EAFDE1693F22120691430006014314
:101E1000E161E06913490840E061A068012189049B
:101E20008843A060A06889120843A060A0680901E7
:101E30000843A0600C48490102680A4302608268B6
:101E40000A438260FF20606205B0F0BD600500209B
:101E5000FF03000080AEFEFF4B9B000800280040FF
:101E6000808080FF7F7F7F7F0004014010B5FFF7F7
:101E7000BBFD0548C16880221140FF398239C1602D
:101E800002499002486110BD002800400004014052
:101E900010B57D2105F06FFB4906C009084310BD50
:101EA00010B5410EC0017D220023FEF74BF910BD95
:101EB0000A490A685206D20F03D10A6840231A431E
:101EC0000A6008738868C007C00FFBD0C868C0B23A
:101ED0008A681206D20FFBD1704700000030014023
:101EE00000B518480121426B8BB009030A434263D5
:101EF000406B164A08400A900020FF2105310191ED
:101F000001210090490205910290039004900E4B2C
:101F10000146126803E05208491C072901D29A427F
:101F2000F9D8C9000790069108906946084800F062
:101F3000E5F9012801D0FFF719F800F00BF80BB014
:101F400000BD00000010024080969800380000207C
:101F50000030014030B585B002200190029003208E
:101F60000390002004906A4608210F48FFF71CFAEE
:101F7000052424076A4640212046FFF715FA6A46E1
:101F800080212046FFF710FA01210191CD03029133
:101F90006A4629462046FFF707FA012229462046CD
:101FA000FFF722FB05B030BD00040050EFF31081B5
:101FB00072B605488268C068824201D0012000E004
:101FC000002081F310887047B40500208068400726
:101FD000C00F7047816817229143D2071143816077
:101FE0007047000008B504498A6B02438A63896B15
:101FF0000140009108BD00000010024008B50449EE
:102000004A6B02434A63496B0140009108BD0000DE
:1020100000100240F8B5D4689368556923431469E9
:102020002C43234394692343D4692343946A234371
:10203000104C6418203CE67F85590F4F3D401D43EE
:102040008551E57F03460C33EF585668EE50E67F26
:102050001B1FF7581568F550E47F031DE658156AF5
:10206000360C36042E43E650526A00F007F8012081
:10207000F8BD0000359700080F80FFFF10B58900FC
:102080000F24091F8C408030836A8A40A343134386
:10209000836210BD02480068C007C00F704700008F
:1020A0000020024003490A685208520002430A60B5
:1020B00070470000002002400249CA6A8243CA6297
:1020C000704700000010024008B50449CA6A024384
:1020D000CA62C96A0140009108BD000000100240B8
:1020E00002480169042291430161704700ED00E05C
:1020F00070B5044600680E460025C007C00F2AD1FF
:10210000F1687068226808433169144B1A40114322
:1021100008432060B16860680322120390430843BB
:1021200060607169A068121190430843A06090003C
:1021300000F01EF800280ED03268002A0BD0010EE5
:10214000060250080023301801255941FDF7FAFF17
:102150000003000BE060284670BD0000F3E9FFEFCC
:102160000248016882151143016070470070004009
:1021700010B512490024C968014001208002091AE3
:1021800012D0091A14D0814207D100F033F8002888
:1021900001D00124E403204610BD02F0F5F802F05E
:1021A000D9F802F0E5F801E002F0EEF80446F2E7B3
:1021B00000F018F80028EED0014CECE74010024087
:1021C0000024F4000248C0680C2108407047000059
:1021D000001002400248016801221143016070476B
:1021E00000100240024800684007C00F704700001E
:1021F00000100240024800698005C00F70470000CF
:102200004010024003480168012212061143016098
:102210007047000000100240024800688001C00FB3
:1022200070470000001002400349CA6892089200FB
:102230000243CA60704700000010024018B57D21BB
:10224000C9000091C16801224906C90F15D1491E74
:10225000C160C1680B4B4906C90F0CE01969C9037D
:10226000C90F02D00099491E0091C168009C49061F
:10227000C90F002C03D00029F0D0104618BD002251
:10228000FBE7000000E000E038B57D24E4000094A6
:10229000C268012180231A40A13AC260C268164B6D
:1022A0009206D20F0CE01A69D203D20F02D0009A24
:1022B000521E0092C268009D9206D20F002D18D0C7
:1022C000002AF0D1002912D00094C2689206D20FE1
:1022D0000BE01A69D203D20F01D0621E0092C268CD
:1022E000009C9206D20F002C03D0002AF1D00846A1
:1022F00038BD0021FBE7000000E000E010B50368F6
:1023000000225B06DB0F25D10CC94C681A430B6811
:1023100023431A438B681A43CB681A430B691A4349
:102320004B691A438B691A4303680E4C23401A43C6
:102330000260426804239A43CB681B0C1A43426034
:1023400001238A695B0308399A4202D1898C89B2D8
:1023500001610122C1690123DB029943C161104679
:1023600010BD00004000FFFF7047704770B52E4C55
:102370006160E060264610368168B01C8847022004
:10238000401C0828FCDB0320401C0828FCDB032041
:10239000401C1028FCDBE068C068804706F09CFC0D
:1023A0002249002006F0F8FB20600320401C08288A
:1023B000FCDB0320401C1028FCDB0320401C102801
:1023C000FCDB1C481A4901601B4941601B498160C4
:1023D0001B49C160E06814490068083108600022A8
:1023E000144800F0C9F9134D0220103528706068B8
:1023F00000782871284600F077FC07202870606874
:1024000080782871284600F06FFC00202870287121
:10241000284600F069FC012070706068417802482D
:102420005030017370BD000054000020FFFFFF0119
:10243000E731000884050020E93100084D3200082A
:102440008D32000830B52348224D01780020103D20
:1024500085B0012928D0204C0321217060602046DE
:1024600000F042FC0420207028686060204600F0E4
:102470003BFC05202070284632306060204600F08A
:1024800033FC06202070284642306060204600F071
:102490002BFC012020702071204600F025FCE8680C
:1024A0004069804705B030BD694608700948801C06
:1024B00001900830029008300390686840780874F2
:1024C00001A91EC9044820381EC0684600F032FD2C
:1024D000E8E7000064000020940500207047000039
:1024E00070B586B00E46044605F018FE0025ED4393
:1024F000002822D1207904A900F002FE0246002122
:102500001548002A04D06A461170029191811FE09B
:10251000002E15D0012269460A7062790A7122796B
:102520008A812168029108226946CA73007B8873F8
:10253000684600F0C5FA002800D0284606B070BDF5
:102540006A46117061791171217991812168029136
:10255000007B9073ECE70000A400002010B50B484E
:102560000168002904D000F015F800F066F810BDED
:102570004068002804D000F019F800F05FF810BDA2
:1025800000F006F800F058F810BD0000B40100207B
:102590007047000010B5044801688908890001608F
:1025A000FFF79EFD30BF10BD0070004030B585B014
:1025B000EFF3108472B614216846FDF749FE03203C
:1025C0000190002005252D0702906A4680212846AB
:1025D000FEF7EAFE6A4640212846FEF7E5FE6A4617
:1025E00008211148FEF7E0FE01216A46C90328468A
:1025F000FEF7DAFE0D48406880470D480168042266
:102600001143016084F3108801680123890889005F
:1026100019430160074801691143016130BFFFF7A9
:102620005FFD05B030BD000000040050A09600081A
:102630000070004000ED00E07047704710B5EFF308
:10264000108472B6FFF7C6FD0C4801684907C90F30
:10265000FBD0FFF7D7FDFFF7DFFD0028FBD00320FD
:10266000FFF7E2FDFFF7AEFD0C28FBD1FFF772FC90
:1026700003480068804784F3108810BD00100240B2
:10268000A0960008EFF3108172B607480268002A8E
:1026900001D0002005E04068002801D0012000E0C2
:1026A000022081F310887047B401002010B5EFF3C9
:1026B000108272B6064B00295C6803D0012903D151
:1026C000044300E084435C6082F3108810BD000086
:1026D000B401002010B5EFF3108272B6064B00294A
:1026E0001C6803D0012903D1044300E084431C602B
:1026F00082F3108810BD0000B4010020F8B5174621
:1027000005460A461948069C089E0799447183713C
:102710001C0AC4711C0C04721B0E437281720B0ADA
:10272000C3720B0C0373090E4173D4B2C473104807
:10273000FEF74FFA39460E48FEF75BFA10220B49B6
:102740000B48FEF75EFA224629460948FEF759FA79
:102750000749C81FFD38FEF79EF9064C601CFDF7BF
:1027600098FD2178000208433060F8BD7401002014
:10277000E40B0020E00A0020F8B50F4605001646DD
:102780007ED028680028FBD068680028F8D0A868A8
:102790000028F5D0E8680028F2D0104602F082FD4B
:1027A00000286ED0754C0021E765A5652246E673CA
:1027B0001932117021746163A174216561650B2167
:1027C0006A4611703046694602F05BFD002800D071
:1027D0000120E0740821684601706946E07B02F040
:1027E00050FD674D05212870684601706946E07B01
:1027F00002F047FD68700C21684601706946E07B75
:1028000002F03FFDE8600D21684601706946E07BFB
:1028100002F037FD28610E21684601706946E07BB1
:1028200002F02FFD68610F21684601706946E07B68
:1028300002F027FDA8611021684601706946E07B1F
:1028400002F01FFDE8611321684601706946E07BD4
:1028500002F017FD2E462036707014216846017074
:102860006946E07B02F00DFD686215216846017043
:102870006946E07B02F005FD30721A21684601E0EE
:1028800077E078E001706946E07B02F0FAFC307393
:102890001B21684601706946E07B02F0F2FC707310
:1028A0001C21684601706946E07B02F0EAFC28635F
:1028B0001D21684601706946E07B02F0E2FC686316
:1028C0000021E07B02F0E7FC012737700A22062195
:1028D0006A6028462972383842600172E968C1602E
:1028E0002969016169694161A9698161E969C16118
:1028F0002030077002F048FD28462249383004F0A5
:1029000005FD7D212846C900383004F067FD2846C2
:102910001D49683004F0FAFC28461C497C3004F05C
:10292000F5FC28461A49903004F0F0FC2846194975
:10293000CC3004F0EBFC04F0D7FC206328461649A9
:102940004C300160154981601549016115494160AC
:102950001549164DC160A9688847E869804706F0A7
:10296000BBF96774296E38468847686B804700203A
:10297000F8BD0320F8BD0A20F8BD00000C010020BE
:10298000B809002049330008513D0008913C000877
:10299000F13C0008E5320008693B00089135000869
:1029A000693A0008553C0008E93A0008A09600087A
:1029B000F8B504461D4617460E460D48FEF709F9C0
:1029C00039460B48FEF715F9F2B221460848FEF7E2
:1029D00018F90749C81FFD38FEF75DF8054C601C63
:1029E000FDF757FC2178000208432860F8BD00007D
:1029F000E40B0020E00A0020FFB585B00F46044636
:102A000007ADF02200211D480E9E05F0C5FE1B4AB1
:102A10001021204604F00EFE10220021684605F029
:102A2000BBFE012168460170062239466C46401CF7
:102A300005F09AFE02222946E01D05F095FE0F4A98
:102A40006846089904F0CBFD10220021684605F085
:102A5000A3FE02216846017006223946601C05F07B
:102A600083FE02222946E01D05F07EFE034A314620
:102A7000684604F0B4FD09B0F0BD0000F00A002083
:102A8000F8B517460E4605461C46F02200210B48B5
:102A900005F082FE094A1021384604F0CBFD074AB2
:102AA0002146284604F09BFD102E06D321462846D9
:102AB000024A1031103004F092FDF8BDF00A0020F7
:102AC000F0B504460026022087B03546374604900C
:102AD000002C5BD04248406B002802D0012007B098
:102AE000F0BD002069460872014614223D4805F0F9
:102AF00053FE3C4801214170394841732278002A35
:102B000004D0012A0AD0032A29D11AE001736B46A6
:102B10001A7A0127D206D20E403207E0E27B027316
:102B20006B461A7A0127D206D20E80321A722679A3
:102B3000A2680192A2890E2500926557E02E25D841
:102B40000DE001736B461A7AE0231A436B461A7242
:102B500062680192012722890A25009265570121A6
:102B60006A46117520490691097B91751C4805A993
:102B7000C07B02F086FBA84200D3054668B2002F56
:102B800022D0174D2979002902D012E00320A6E7B0
:102B90006946087306980422007B887303A9E87BC2
:102BA00002F0E7FB0028F1D00F496846007B20398E
:102BB0004870314602A8009B019A04F05FF8049027
:102BC000002803D000206871049888E70548217820
:102BD0000170034801221930017811430170F3E7B5
:102BE0000C010020B00A0020A0090020F8B5002543
:102BF0000446002819D03A49277838480A4638321E
:102C0000C67B3B0004F0CFFC1F1315181A1C1F21B4
:102C10002426282A313C3A4347494B4D4F515357BC
:102C200055595B5D5F61636567000320F8BD007CFB
:102C300000E0C07820714FE00079FBE7806C00E095
:102C4000C06C606048E02748FBE726481030F8E792
:102C5000407CEFE7807CEDE7192012E02049203925
:102C6000486C896CA160606036E01D4920390846D7
:102C70007C30C96F40686160A0602DE0172000E0E3
:102C8000162069460870304602F0FBFAD9E714486E
:102C900020300078CEE7C868D3E70869D1E74869F3
:102CA000CFE78869CDE7C869CBE75078C2E74878B5
:102CB000C0E71078BEE70878BCE7406AC1E7806AE1
:102CC000BFE7006ABDE74868BBE7087AB2E7486B30
:102CD000B7E7506BB5E702252846F8BD0C01002088
:102CE0008009002060060020F0B5002689B0044667
:102CF000002806D08B4FB88EC00704D0012009B041
:102D0000F0BD0320FBE7884D864822782946C07B2A
:102D100020310191497B130004F045FC1F1121244F
:102D2000272A2D333C42F1456C827E8D94979A9DE3
:102D3000A1A4B3D3C4E2E5F1E8F2F8FBF1002079F5
:102D40003874002804D0012805D0022803D103E0FC
:102D50007648406B8047E2E00020787139E02079C6
:102D6000F870DCE020793871D9E06068B864D6E0AA
:102D70006068F864D3E0616800296FD010226C4865
:102D800005E06168002969D069481022103005F01B
:102D9000EBFCC4E0207965497874096E8847BEE091
:102DA0002079B874BBE0237A6A4613755175062200
:102DB00005A902F0DEFA002850D05B48A26820384E
:102DC000616882644164387C022812D1F878002856
:102DD0000FD05648406B804753480821F030009090
:102DE00001982A7A41566B68F87B02F034FA00F0B9
:102DF000C1FF94E0237A6A4613755175062205A92E
:102E000002F0B7FA002869D04748A3682038626802
:102E10008021C2670B5082E061680391012102E0CA
:102E20006168039100216A46117403A902F002F857
:102E3000002853D073E02079411E0E294ED8019905
:102E400008706CE06068E86069E06068286166E0CE
:102E50006068686163E06068A86160E03EE06068A7
:102E6000E8615CE021796A461175052205A902F046
:102E700080FA002832D06846017D2B4838304170F6
:102E80004DE0227969460A7501990A7B69468A757F
:102E9000042205A902F06DFA00281FD06846007DC3
:102EA00068703CE021796A461175082205A902F094
:102EB00060FA002812D06846017D1B483830017046
:102EC0002DE021796A461175072205A902F051FA11
:102ED000002803D06846007D287020E003261EE00D
:102EE000606878621BE06068B86218E00E4861684C
:102EF00038304160696012E00BE007E000E00DE06F
:102F00000948217938300172297208E060686863E5
:102F100005E0054861683830416300E0022630462C
:102F2000EDE600000C01002080090020A0960008BA
:102F300060060020FEB5044602200090002C51D00F
:102F40003848406B002818D10C220021364805F083
:102F500023FC354E01207070324D2078082719353A
:102F6000002806D001283FD0022848D0032830D1BD
:102F70004DE02C48808EC00601D50120FEBD606862
:102F800000282FD0A06800282CD0E068002829D085
:102F900002F0FAF9287838432870207830702148F8
:102FA0006168C163A1680164E168416410216156F0
:102FB000C07B01F01BFF1D49487000206946087165
:102FC00003460246014601A803F058FE009000287F
:102FD00006D01449002048712878F721084028704D
:102FE0000098FEBD0320FEBD2878002238432870DB
:102FF0002078307011460220FDF762FEE6E730705F
:10300000287838432870A08803F0ACFEDEE73070E3
:10301000287838432870227BA088A16803F0CCFE72
:10302000D4E700000C010020C40A00208009002021
:10303000FEB508AF70CF6F4670C700F001F8FEBD57
:10304000FFB50D46002681B01F460124F02231460F
:10305000294805F0A1FB284A1021039804F0EAFA58
:1030600026480A9941718771390AC171390C017278
:10307000390E41720B9981720B991F4F090AC17267
:103080000B99090C01730B99090E4173203F18E04D
:103090001A48194AC473641C1146A4B2203904F0BA
:1030A0009EFA00203118019A3B5C525C401C5A4049
:1030B0000C9B80B25A541028F4D3103D1036ADB298
:1030C000F6B2102DE4D2002D13D00B4A0B48114656
:1030D000C473203904F083FA002008E0019A311803
:1030E000525C3B5C5A400C9B401C5A5480B2A84234
:1030F000F4D305B0F0BD0000F00A002084010020E8
:10310000F3B52B4887B00E46427869460A710078BD
:10311000284C0876207A617A4018C5B2002E32D049
:1031200000216846017221794172E06A20490390CA
:1031300038394A78684602741D4F09784174183F3F
:10314000397B817420462C30009006AB01AA02A97D
:10315000E07B01F03CFE397B684681750179417561
:1031600009210175A07C002802D00A206946087553
:1031700005A9E07B02F085F8C0B27070A84205D3C3
:10318000401B307006E0032009B0F0BD3070002510
:10319000257265726846042141562A46079804F054
:1031A00097F9002801D00020EEE70820ECE70000A6
:1031B000B80900200C01002038B504466846054DCA
:1031C00004700B226946E87B02F0D3F8002800D097
:1031D000EC7438BD0C01002010B50279016840790B
:1031E00005F034FD10BD70477CB5044640780028DA
:1031F00022D16079134D012802D1E868C069804767
:1032000004F08CFF002801D004F076FF607B0128D9
:1032100012D1E078E02810D069464871207B08710F
:10322000A06800900748E18950304180217C0171FD
:10323000E8680169684688477CBD0349204604F078
:1032400073FF7CBD540000207405002010B50446B7
:10325000007800280CD0012809D16078002806D118
:1032600004F05CFF002802D0204604F04DFF10BDA2
:103270006078002802D0FFF7E5F810BD0248C0686A
:103280004069804710BD00005400002000780428E9
:1032900003D10248C068C06900477047540000204D
:1032A0008307FF22DB0E9A408907090E9940002808
:1032B0000BDA0007000F0838830808489B0018182D
:1032C000C36993430B43C3617047830804489B0061
:1032D0001B181868904308431860704700ED00E021
:1032E00000E400E010B50B4804F0C2F80A48417948
:1032F000002905D001218173416B04229143416370
:10330000007C022805D1044820221930017811439D
:10331000017010BD840A00200C0100200EB507A02A
:103320000068029002A80090012168460171E02126
:1033300041710021FFF7D4F80EBD0000010000002C
:1033400010B504F0B5FF10BDF8B500278D4804F0A6
:103350008FF88D4D8D4C287881066DD5616B4A06AE
:1033600004D540229143490849006163854A010719
:10337000D4320026002901DBC10711D08149C031B8
:103380004B78022B02D05378022B09D1636B5B0878
:103390005B0063632672637B4B710E7101278E6045
:1033A00061793943774F503F00292BD1010702D46F
:1033B000C10703D126E01178002906D03978A27A16
:1033C000914208D981070CD417E0507800280FD11A
:1033D0006662A6720CE0800703D42672E06A401C85
:1033E000E062A6726078002802D1606A401C6062C8
:1033F000606B40084000606304E0DF2108402870F3
:1034000000F0A6FC2878800717D55E4AC0321079F4
:10341000012803D0607B217B88420ED9A673667198
:103420006078002802D1606A401C6062607B507145
:10343000606B40084000606350E0A07B00284DD0E6
:10344000A08EC0064AD4A673607B217B884232D20C
:10345000082830D8401C6073C0070DD01E21684674
:103460000170397B474F8170703F797841706946B0
:10347000E07B01F006FF7870012003F067FB002875
:1034800014D040480921C03041702672616B490850
:103490004900616366710671617B41713949703918
:1034A000497881706078002815D017E02878DF21EE
:1034B0000840287012E00121E07B01F0ECFE606B17
:1034C0004008400060632F4826726671C030067164
:1034D000617B4171E6E7606A401C6062606B810756
:1034E00002D5022188436063002811D07D21C900E4
:1034F000244803F073FF234803F082FF28788107F4
:1035000034D5FD2108402870207C022820D021E0FD
:103510002878C10707D0400840002870A06D0168D6
:103520001848C03088472878010707D5F721084098
:103530002870A06D81681348D4308847607A0028CD
:1035400001D003F003FC2878DF2108402870D5E77C
:1035500000F010FC2878400704D4A06D41680948A9
:10356000A83088472878FB2108402870C0B2C106DF
:1035700007D5EF2108402870A06DC1680248801E61
:103580008847F8BDF0090020250100200C0100202B
:10359000FFB595B00C4606460021FB4808910F90F8
:1035A000103012910D90F9480B911191017118385A
:1035B000C281189A0274F64A0D46127E4274C17096
:1035C0008170417181600173417381744161017047
:1035D000F048406B8047ED48683803F049FF307889
:1035E000694608704109601E0290201FEA4F13913E
:1035F0001090012917D003297ED005297CD00729F6
:103600007BD039460120F831487000F027FDE048B2
:10361000DE4A4179037C447B1279007B00296DD01E
:10362000002A6CD1FEE1DA48C178002904D0D749DC
:10363000012018394870B3E0D5480299D74D426C43
:1036400089B26B1C701CFFF71BFA68460078287063
:10365000109808AB81B2CE48426C2846FFF7A8F913
:1036600028192038417F027F09021143827FC07FE1
:1036700012040A43000608991043884247D1C24801
:10368000C34E10300090C04BB28B691C706CFFF7BA
:10369000B3F96879297900020843A979090401433B
:1036A000B164287AE97900020843697A0904014380
:1036B000A87A00060843F064E87A4106490F00073B
:1036C0007970000F3872287B0107B548090F016136
:1036D00001D1012101617D22D2005143016189188C
:1036E0004161AE48113C0D3004906846047504A950
:1036F000F07B01F084FB03E00EE081E18FE193E1D8
:10370000A2490020143148700120F0707FE79F48E3
:103710000721143041707AE7797B684681739B48B2
:103720009B4F183801796846417309210173B87CB1
:10373000002802D00A206946087303A9F87B01F02B
:10374000A0FD21460D3909B2002900DA002181428D
:1037500000D96CE7B078717800020843F178090469
:103760000143307902060A4389490692C96C052053
:103770008A42874918D00D6A0CE02A6806998A4265
:1037800007D101211291291D0F9110310D916F6AFE
:103790000BE0AD6A002DF0D10B217C481838417048
:1037A00000F05CFC19B0F0BD8F6A325C69460A70AB
:1037B000401C0A92335C401C305C01021007000F71
:1037C00008300990301919432038037F0B9A1343AE
:1037D000427F12021A43837FC07F1B0413430006FB
:1037E00018430B90C81B81B20122D20308A80E9186
:1037F000914212D27F1801210197029000911098F6
:10380000069B81B230460F9AFEF778FF08990B9815
:1038100088421AD10120119017E009B27A180121CB
:1038200009045118149101910290109801220092FC
:1038300081B23046069B0F9AFEF760FF08990B98FD
:10384000884202D10120149F11901120694608730B
:103850004F4803A9C07B01F014FD0E99884205D89A
:103860004A480A2118384170476199E711980028A1
:103870007AD04649002018394870129A8A700A9AFC
:10388000D206D20F4A71886008734F611831404ADE
:103890004870D0625072129800280CD0084602225C
:1038A000183802706A6ABA4203D1002A01D008218E
:1038B00075E76F6223E0139805280DD03448334A2A
:1038C00000238371183A1370806AB84215D100281A
:1038D00013D00820507063E72D482C4B01228271D1
:1038E000183B1A70806AB84207D1002805D02848D2
:1038F0000423193002781A43027025488762087839
:10390000012832D0224A002010720998201A001F84
:10391000002863DD099D09986D1C621B121F1B4C5A
:10392000305CD2B2183C0E92E07000280A9839D070
:10393000000707D018980821C3B2681EC2B23046EB
:1039400000F0AAFB1548012101970091029070191F
:10395000069B0D9A0E99FFF76BFB1048A0600E981E
:1039600020730120607343E048E00A988006CCD5BC
:10397000074A002010720A98044A8006C00F087196
:10398000183A9074C1E7000060060020B00A0020D9
:103990000C010020A0960008A00900207F0700204D
:1039A00080090020000708D02C48042302781A431D
:1039B000027000200871A0741AE0012128480091CB
:1039C000019702907019069B0F9A0E99FFF730FB32
:1039D00018980021C3B222480E9A07E00A980007FF
:1039E00006D018980821C3B23046099A00F054FB5B
:1039F0001A48022201781143017008E60C21CCE636
:103A0000711C2246164804F0AFFE164803210170CF
:103A1000002141701249816002990173E8E7022B8D
:103A200002D005E0844203D90E48143803F020FD8B
:103A30000C481438007A002800D0B3E6074820224A
:103A400001781143017007480121A83803F0C6FC32
:103A50000448A83803F0D4FCA4E6000025010020A7
:103A60007F070020980A002070B51C4C207C02289B
:103A700002D01B48406B80471A48184D227E0146F1
:103A80001935202614316379002A0BD00622002B29
:103A900000D042704A70207C02281BD02878304326
:103AA000287070BD0522002B00D042704A70207C27
:103AB00002280FD0206D03F01DFC616E884206D3F2
:103AC0000848683803F0D4FC287830432870207CFC
:103AD0000228E6D100F04EF970BD00000C01002074
:103AE000A0960008B00A002070B51C4C207C02286B
:103AF00002D01B48406B80471A48184D227E014671
:103B00001935202614316379002A0BD00422002BAA
:103B100000D042704A70207C02281BD028783043A5
:103B2000287070BD0322002B00D042704A70207CA8
:103B300002280FD0206D03F0DDFB616E884206D3B2
:103B40000848683803F094FC287830432870207CBB
:103B50000228E6D100F00EF970BD00000C01002033
:103B6000A0960008B00A0020FEB503F0BDFB364C5D
:103B70000646207C022803D03448406B804701E091
:103B800000F0F8F8304DA0781935002700282AD029
:103B90002F48216E03F022FC2D4803F031FC207CDD
:103BA00002280ED02A48616E143003F017FC284812
:103BB000143003F025FC207C022802D06079002814
:103BC00020D012206946087202A9E07B01F059FB5F
:103BD000616E41181E48503003F000FC1C48503004
:103BE00003F00EFC0EE01A4804217C3047701430BC
:103BF00041702878002801D101202870C0B220210E
:103C0000084328702878000704D5114890300078C0
:103C1000002815D0A775207D607569460870E0788A
:103C200048700196E07B01F080FB266560790028F2
:103C300005D107487C304770A07A401CA072FEBDB9
:103C40000120A075E7E700000C010020A096000805
:103C5000340A002010B50B48007C022803D00A4823
:103C6000406B804701E000F085F808490220487069
:103C70001431487003482022193001781143017033
:103C800010BD00000C010020A0960008B00A002022
:103C900070B5144803F0ECFB134D0020114C28764E
:103CA000297D283421702146BC394A78E270497B4D
:103CB0002174A97C6174A074E074287C022802D16C
:103CC0000A48806B8047074AE87B683211464039D2
:103CD00001F017FB0348B438C168A07C01F0E2FB97
:103CE00070BD0000340A00200C010020A0960008DE
:103CF000F8B5154803F0BCFB134C144D2834287D4F
:103D000027462070F03F786A60602046D038407BBC
:103D10002074A87C60740126E674287C022802D0F6
:103D20000020A07400E0A674074AE87B54321146D4
:103D30002C3901F0E6FA002804D0A07CF96801F0E3
:103D4000B1FB2E76F8BD0000480A00200C010020CF
:103D500010B5064803F08CFB05481022416B9143D7
:103D60004163012002F0F2FE10BD0000200A002095
:103D70000C01002010B5FFF7BBFF024902200876B6
:103D800010BD00000C010020F0B5064600242046BE
:103D9000002E01D0002A1ED10020F0BD355DAF1EDF
:103DA0003B0003F000FC091614160612140E16064A
:103DB0001600641C1554E4B2401CC0B2335D1354A9
:103DC00000E01554401CC0B203E0A41C00E0641CD9
:103DD000E4B2641CE4B28C42E0D3F0BDF0B50C4612
:103DE00087B08446002198480C9D069141831E1E91
:103DF0001746417100D10025EAB202706146934D29
:103E0000097829700121009161460978490908D093
:103E100002293FD004293BD007297DD0022007B0DA
:103E2000F0BD009904464183681C0822216C04F00F
:103E3000A6FC608B0822083080B260832818E16BF2
:103E400004F09DFC608B083060838148C069804726
:103E50000146A083608B06AB2954401C80B2090A3E
:103E60002954401C6083C1B27848626CFEF7A0FD03
:103E7000608B06992954401C80B20A0A2A54401CBF
:103E800080B20A0C2A54401C80B2090E2954D7E093
:103E900001214171C178002969D0012269460A7364
:103EA00021786948CA0969464A736A4AC06A049017
:103EB000507808751078487510462030007B88755A
:103EC000614813462C3000902C3803A9C07B521C4B
:103ED00000F07DFF81012078BF22104008435A493D
:103EE00020708979002905D0574A0021917120213D
:103EF000084320705448C16C54480A0A41708270CB
:103F00000A0CC270090E0171217841714E49898CE9
:103F10008171090AC17100E088E04B49FF30097ADC
:103F2000FF304018484908254A7A4A49823904F046
:103F30001BFC4548017A407A0818C1B24248002E5D
:103F400001721FD00278002A1CD0C279002A22D028
:103F50000F291DD820783D4A030940181B0100078E
:103F6000000F03432370537100203B4C07E00720F0
:103F700055E7235C53556D1C401CEDB280B288425E
:103F8000F7D308E03048002905D0C279002A02D0D2
:103F9000314E017000272C4C00202F4AE0718032F6
:103FA0002D48FFF7F1FE6072002801D00120E0717A
:103FB000002E14D02178002911D0244847556D1CBB
:103FC000EDB2002F27D0636A0022401900920193BE
:103FD00002901E4AE36C103A3046FFF731F8207821
:103FE00006AB2918618300206E46626A0DC6174A27
:103FF0001648203AE36CFEF781FB144A618B069861
:104000005054030A52185370030C000E9370D07072
:10401000091D618316E000222272636A4019009232
:104020000A4A01930290203AE36CD5E7002B09D0AD
:104030000446002A06D0681C314604F095FB20781F
:10404000401C60830020EAE60C010020800600206E
:10405000A0960008800900207E08002010B50C48BA
:104060004022416B114341634079002801D0FFF7A2
:1040700039F90749222219310878104308700121C3
:10408000044803F0ABF9034803F0BAF910BD00008F
:104090000C010020F0090020FFB505468BB0A948AF
:1040A00016460C46099026E1285D641C801EE4B289
:1040B000030003F078FA0906115E6AA1B0D8F1EFA7
:1040C000EE00A14900204870285D0872641CE0B22F
:1040D0002A5C4A72401C4AE000206946087708A919
:1040E00008706946087208732819401E0490301B36
:1040F000401C08759548934F02798A750999203FAD
:104100000A7B69464A757A78CA753A780A760999B7
:1041100008AB0A7869464A7603AA02A9019200917F
:1041200007AA04A9C07B01F0C3F80090C043400770
:1041300009D16846007F787008A800783870684612
:10414000017A09980170002706E0002203200099F7
:10415000FCF7B6FD7F1CFFB268460521007BFBF72C
:10416000C7FFB842F1D86846007B2018401EC4B291
:10417000C1E0295D7548641C0122C1728A40C28376
:104180000022E4B211460420B3E0285D4006410F4E
:1041900068464170285D641C0107090F684601707C
:1041A000E0B2295C401CC0B201912A5C401C1202A2
:1041B0001143C0B201912A5C401C12041143C4B2E5
:1041C000084664214843019060486946C07B01F07D
:1041D000A3F80146C84340070BD168460278099806
:1041E00002725848019A203842626846427809981B
:1041F0004270002205207CE05448FF21C06D002859
:1042000004D00068002801D0804701460E9882063D
:10421000920E06206DE0285D69460874641CE0B2C9
:104220000391295C401CC0B200912A5C401C120220
:104230001143C0B200912A5C401C12041143642255
:104240005143009100210191C0B22A5C401C694693
:10425000C4B20A723D4803A9C07B01F03AF80022BB
:104260000146072045E0285D641C0007000FE4B20A
:10427000002800D101207D21C900484331497D2219
:104280002039D200086180180022486111460820B8
:104290002FE033E034E0FFE7285D00216A46641C2C
:1042A00011705170E4B2810601D501215170C1062F
:1042B00001D5012111700007000F907023481146AD
:1042C000C07B01F04DF8401C15D068460178099874
:1042D00001736846417809984173684680781C49A3
:1042E000085CFCF7E1F91749002220390863114600
:1042F0000920FCF7E5FCB44200D2D5E60FB0F0BDD2
:10430000285D69460870641CE0B2295C401CC0B29C
:1043100001912A5C401C12021143C0B201912A5C37
:10432000401C12041143C4B2084664214843019062
:1043300006486946C07B00F09BFF002201460A2028
:10434000D7E70000A0090020C40A00200C010020CB
:10435000949B00080449C968F0221140034A0909E6
:10436000515CC840704700000010024014970008DC
:104370000349C968034A4905490F515CC840704761
:10438000001002402D97000810B50C49CA680C2097
:1043900002400B4805D0042A09D0082A09D00C2A6B
:1043A00009D049680904490F491C884010BD0548D7
:1043B00010BD054810BD00F009F810BD0010024006
:1043C000008000000024F40000127A0010B50B48B1
:1043D000C16801231B040A4A194002D0994200D146
:1043E0005210C168C0680902890F8002054B000F96
:1043F000185C491C5043FBF77BFE10BD00100240C7
:104400000024F4002497000810B504F0CFFE10BD7E
:1044100010B5FDF7A1FB10BDFFB5082504464557B3
:10442000092083B020560190012168460170A17ACD
:104430000027817000F092F946B206986168016029
:10444000B54200DC35466078012825D1B54203D15C
:104450000698002101601FE06068402802D3012710
:1044600000210191602817D3C006C00E012813D186
:104470001E21684601704570A17A817000F06EF9C6
:1044800045B2B54208D120780027012804D106485A
:104490000322018811430180049805700599019851
:1044A0000870384607B0F0BD940100200220704724
:1044B000F0B587B007465020694608723879102851
:1044C0002ED100240225264601E0072D19D2386896
:1044D000611C005D00903A68515C0902084300903D
:1044E0003A68A11C515C01960904084364214843C1
:1044F00000900AD068460390057403A800F05CF8A9
:1045000008E068460096067201966846057505A89B
:1045100000F0BEF8E41C6D1CEDB2E4B2102DD4D353
:1045200007B0F0BD10B50024012800D102240848CE
:1045300080560B1AA34201DA204600E018460528EF
:1045400001DD052402E0A34200DB1C46E0B210BD01
:10455000C49B000800B585B00A4900910A49019141
:10456000427869460A7202784A7282788A72C27800
:10457000CA724168039180680490684600F063FC49
:1045800005B000BDFC0C00209801002010B5017999
:10459000002903D0012905D0002010BD01680122A7
:1045A000044803E0016803480122801C00F08CFCF1
:1045B000012010BD94010020F8B5054600200090B0
:1045C0002E7904460746102E01D30320F8BD286833
:1045D0000722007A00210007001700F034FE0028AF
:1045E00000D1012428680821415607220811002122
:1045F00000F029FE002800D101242968082008566F
:10460000010709170211914200DD0124022E12D286
:10461000002900DD012400110722052100F013FE0E
:10462000002800D101242868174902680C20704333
:104630000858824209D12868006802F06DFF0028FE
:1046400003D03C4203D00620F8BD0127F9E7002C37
:1046500001D00520F8BD002F01D00420F8BD0C20AA
:10466000324642430848296814180C22204604F0B8
:104670007BF800986072054801220188B24011431E
:1046800001800020F8BD0000FC0C002094010020F7
:1046900010B50178022901D2002010BD0C22064B72
:1046A0004A430020D21810605060906010220348E6
:1046B00000F0F7FB10BD0000FC0C0020940100206E
:1046C000FFB583B01C461646072800DB0720607044
:1046D000FCF74EFCA07001202056104A072819D084
:1046E0008100134628335958105C00F081FC0546C0
:1046F0000B480F46406E804721460C31083402912A
:1047000000903346019428463946049A00F01BFC79
:1047100007B0F0BD105C00F05FFCE8E7A49B000868
:10472000A096000870B505460324406802F0F4FE28
:10473000002800D1022429780C2041430648425821
:10474000002A01D1FD221440032C02D108186A6806
:104750004260204670BD0000FC0C0020F8B5024607
:1047600017787D21C900002002252F4E4C003B0008
:1047700002F019FF1F111317171716171717232FFA
:1047800017383A3C3E404245174A164C4E51531793
:10479000175557181700D17800E09178002900D0FC
:1047A0002846F8BD907800282048105603D00221F2
:1047B000FCF716FCF8BD0021FAE79078002804D138
:1047C00001201949105610390AE001201056305CBA
:1047D000F8BD90780028F8D1012013491056083907
:1047E000085CF8BD1248F8BD0846F8BD2046F8BD83
:1047F0001048F8BD1048F8BD01208003F8BD0F48EF
:1048000004F0CAF90019F8BD0D48F8BD0D48F8BD0F
:104810000C48801CF8BD1020F8BD0B48F8BD0B48B3
:10482000F8BD0B48F8BD0000BC9B0008010000006B
:10483000B80B0000881300007017000018FCFFFF81
:1048400000EA063794010020FC0C00200000A04183
:104850009A99094070B51049002804D0012813D056
:10486000022810D10AE00D4C0D4B2046483025C8D7
:1048700025C3543425CC25C30320088006490122D2
:10488000881E00F021FB70BD03480988801E028845
:104890000A43028070BD000096010020A49B00081E
:1048A000FC0C0020FFB507258FB0044600266846A3
:1048B000374606803AE0206802A9801900F044FCDF
:1048C000002836D03018C6B2694688890880C97A6F
:1048D0000725084304D0481E042801D9072901D31D
:1048E000062523E0002006290CD06B4601221B88F8
:1048F00082401A4216D00C22324B42439A58002A68
:104900000ED00FE00C222F4B42439A58002A09D0B8
:104910006B4601221B8882401A436B461A8001E0D5
:104920006D086D00401CC0B21028DCD32079B04265
:10493000C1D80121684601716179817101A8FFF731
:104940000DFF014668460574A2794274427A82746A
:10495000827AC274027A0275E2794275227A82758D
:10496000627AC27510220276079008A801700721AA
:1049700041701448099008A8017202AB47729A1C52
:10498000511E04A800F094FB0446072808D1022217
:1049900000210D4803F000FF68460B49008808809D
:1049A0006846417A109801706846817A11980170C2
:1049B0006846017A1298017018980670204613B064
:1049C000F0BD0000FC0C0020940100203EB5016801
:1049D00003240A68002A0DD0009100796946087105
:1049E0006846FFF7E9FD002812D004280BD00528FF
:1049F0000DD10AE000796946087202A8FFF748FE67
:104A0000002804D004E0022402E0012400E0002495
:104A100020463EBDFFB589B00446002568460573B3
:104A20001E460495059506950122294635480795A9
:104A300000F008FB002804D132480322018811430A
:104A40000180606802F056FC2168884239D300205A
:104A500030602C4AA17A607A0123121D00F094FB89
:104A60000746284803AE04A9001D6A4643C2217ABE
:104A7000607A254B234AFCF7B3F90090002829D02F
:104A80000025411E284604F087F8C4B204A8065D3C
:104A9000601C0099FBF72CFBCCB20C201A49704328
:104AA00009581A4854220623D24387690120B8477F
:104AB000002817D00A9806700B99002008600DB0E6
:104AC000F0BD6946087B401C0873606802F012FC68
:104AD00021680F1A6846007B002809D00B980760F0
:104AE0000B20ECE76D1CEDB2102DCFD30D20E6E7C7
:104AF000044803220188114301800B9805600C20B3
:104B0000DDE7000094010020FC0C0020A0960008C6
:104B1000F3B50125314E044645574768F0688DB01E
:104B20008047002802D000200FB0F0BDE07C0028B4
:104B300009D121780C20414329484758081840687A
:104B4000002800D00746274840570B907169384627
:104B5000884700200121072D23D001220A92A27C40
:104B600007AB069007C32189059089B202910821FD
:104B700003900490019100900123376AA1781846B0
:104B80000B9AB847607C012824D016480830405D55
:104B9000F26D0D30C1B20A9890470E980570012051
:104BA000C2E700220A92A27C069007900992089020
:104BB0002289059192B20521029201910A4A00923E
:104BC0007D210B9AC9004A430390049000230749B2
:104BD000376AD6E703481030D9E70000A0960008EE
:104BE000FC0C0020A49B00088545010050C3000078
:104BF00070B50F490546896A072440688847002830
:104C000000D10624002028560722002100F01BFBBB
:104C1000002801D1FD200440012028560722002150
:104C200000F011FB002801D1FB200440204670BD9C
:104C3000A096000810B501780C235943054B426833
:104C4000C918497A044B0901C918407800F097FA4D
:104C500010BD0000FC0C00209801002070B502225D
:104C60000446825601780C200B4B4143C818407A09
:104C70000A4D0001451902202856824200DD1046E7
:104C80005D58A268616800F0C9F901460448A2892C
:104C9000436C2846984770BDFC0C0020980100200A
:104CA000A0960008F7B5044622780C232F4E5A43ED
:104CB0000120921920562C49527A2D4B0F56120181
:104CC0000221D2180225615655578CB0A94200DD49
:104CD0000D46FCF74DF90B902846A268616800F07C
:104CE0009DF90A9020780C2148433058214E716973
:104CF000884761780020204B0122072921D001211B
:104D000009910146059006900790104608930822E5
:104D100001900097029203910490776A0B9B002206
:104D20000A99B847F26D217B09989047F26A217B76
:104D3000099890470E9908600D98057001200FB0F2
:104D4000F0BD002109910790052102917D21069077
:104D50000893C9000590019004924F430390009777
:104D6000776A064A0B9BDBE7A49B0008FC0C00203B
:104D700098010020A0960008B80B0000A861000070
:104D80000020704710B5091F0B0002F00CFC050451
:104D900013171A1A1E00817811E0002103E0002386
:104DA000C35607220221184600F04DFA002800D011
:104DB000012010BD0023C3560522EEE741780029EB
:104DC000EDD10023C3560722E7E7002010BD70B5E0
:104DD0001C46049B15460E46002801D0002070BDDD
:104DE000224629463046FFF717FB70BD10B5002854
:104DF00001D0002010BD0846FFF758FB10BD10B5CC
:104E0000002802D10846FFF753FB10BD70B51446C9
:104E10000D46002801D0D0B270BD1A462146284662
:104E2000FFF780FB70BD10B5002802D10846FFF7E0
:104E300091FB10BD10B5002801D0002010BD084620
:104E4000FFF7A4FB10BD30B502460168C07A0C2301
:104E500058430930095C50680B01C45A00250C33D3
:104E6000C550507A002809D0907A012805D11069E0
:104E700001466143081A5168C85030BDD06800F03F
:104E800003F9844200D92046917A002902D1117A8F
:104E9000002903D011694843401AECE75068C55017
:104EA00030BD10B50B0914099C4201D3914201D3C6
:104EB000002010BD5A000C07835A240F0121A14085
:104EC0008B438352012010BD30B500280AD0002941
:104ED00008D0002304E05C000D5B5B1C0553DBB2D3
:104EE0009342F8D330BDFFB50E461946099A029891
:104EF00000F0A9F9002824D0002425461DE0002355
:104F00006F00F15B0120984001420ED0E0180C21A7
:104F100048430A994018007A01060A0F0107090F51
:104F2000029800F090F901280BD05B1CDBB2102B2B
:104F3000E7D310346D1CE4B2EDB200988442DED3A6
:104F4000002004B0F0BDFEB5054614460E465800DC
:104F5000FBF7C6FB009060000F460838FBF7ACFB80
:104F60002A463346FBF7AAFA3B46009AFBF7F4F9C8
:104F70002A463346FBF70AFB03F05AF8FBF7E2FB3D
:104F8000A04200D90446099804600898FBF7A8FBE2
:104F9000009001912046FBF7A3FB2A463346FBF71E
:104FA0008DFA0022D243FBF769FB0C46074602222A
:104FB00028463146FBF762FB3A462346FBF770FA78
:104FC000019B009AFBF76CFA03F032F8FBF796FBB3
:104FD0000A990860FEBD000010B5FBF781FB024690
:104FE0000B4600200149FBF7D1FA10BD000020401C
:104FF00070B506460846FBF773FB054601200C46D4
:10500000B040FBF759FB2A462346FBF7BFFA0022C4
:10501000014BFBF753FA70BD00408F4070B514464A
:105020000D464000FBF740FB2946FBF791F921466E
:10503000FBF78AF9FBF7A4FB03F07EFAFBF75EFBB4
:1050400040B270BDF0B58446964600206246002A04
:1050500001D0012215E00020F0BD4C0063461F5B2B
:1050600010260024234615469D40BD4301D1641CF3
:10507000E4B25B1CDBB2B342F5D32018491CC0B2CA
:10508000C9B27145E9D3F0BD0649884201D2642016
:1050900070470549884202D27D20C000704703480E
:1050A0007047000080EE3600803F5C021027000051
:1050B000FFB504460678022083B0205602900325EF
:1050C000042761786557E75700290BD10F2801D1D4
:1050D0000F2D02D000260727E7570520205606256A
:1050E00002906557002E25D011202056616901914C
:1050F00000901023E356207AE168029AFFF7F3FE4E
:10510000002801D1FD20064018221921A25661561F
:10511000284600F098F8002807D119202056A84208
:1051200001DD054601E0FB200640072E02D1002FDD
:1051300000D1012704990298087005980570069817
:105140000770304607B0F0BD03780022032B14D15E
:10515000427813071B0F12068B70120F4A70827869
:105160008A80C3781B021A438A8000794206520F54
:105170000007CA70000F087005221046704700280B
:105180008A6000D14A607047FFB50024E44381B0D3
:105190001F46002552E0019800280FD002980028F1
:1051A00044D0039829010E18B06802F0A3F8014614
:1051B000F06881422BD30020F0603DE00398290184
:1051C00008180090406802F095F8064602980028FA
:1051D00003D00098806802F08DF8864202D90098CA
:1051E000406804E00298002803D00098806802F02C
:1051F00081F80099C968814202D8002000991AE01C
:10520000002919D0081AA04216D2044614E000283A
:1052100012D0B06802F06EF8F168081AA0420BD202
:10522000B06802F067F8F1680C1A05E000240399F1
:105230002A0120465118C8606D1CEDB2BD42AAD3A8
:10524000204605B0F0BD884203DB904201DC01201E
:1052500070470020704770B51C46049B15460E46EB
:10526000002804D1224629463046FFF729FA70BDAE
:1052700010B5002801D0002010BD0846FFF752FAF3
:1052800010BD10B50022002801D0104610BD084600
:10529000FFF764FA10BD10B5002802D10846FFF7E9
:1052A000D9FA10BD002801D00020704701207047B6
:1052B000F8B51C460E46069B07991546002801D0F6
:1052C0000020F8BD0091224629463046FFF7EAFA51
:1052D000F8BD10B5002801D0002010BD0846FFF72A
:1052E00075FB10BD70B51C46049B15460E46002884
:1052F00001D00A2070BD224629463046FFF78AFBBE
:1053000070BD10B50B46002801D0002010BD11461D
:105310001846FFF7FDFB10BD10B5002801D0002096
:1053200010BD0846FFF764FC10BD10B5002802D17F
:105330000846FFF77FFC10BD10B5002802D10846D3
:10534000FFF78CFC10BD70B514460D46002801D047
:10535000002070BD1A4621462846FFF7A3FC70BD09
:1053600010B5002801D0002010BD0846FFF708FD49
:1053700010BD10B50B46002801D0002010BD11460D
:105380001846FFF7FFFC10BDF8B51F4C0025E5706F
:105390006562A562E562A572012020736073A57342
:1053A000E572E08325726572A070184801460278A4
:1053B00038390A7042784A700246203253782031D8
:1053C0004B700346583B1E4637467C37F66F7F6866
:1053D0009F645E64137B0B73527B4A732039026BAC
:1053E0000A63416B383841630221E07BFFF753FFCA
:1053F0006571A571E571206A01E04562806A002847
:10540000FBD125756575F8BD0C010020B809002099
:1054100070B5092000F0F5FC0546062000F0F1FC0F
:105420000404072000F0EDFC00020443082000F013
:10543000E8FC0443200A0102184A611A51438031F2
:105440005043090A46180021092001F051FB3B2076
:1054500000F0D7FC4024204301463B2001F048FBEC
:105460003B2000F0CEFC8006FAD40D4800F018FE78
:105470003B2000F0C6FC204301463B2001F038FBF6
:105480003B2000F0BEFC8006FAD42946092001F03A
:105490002FFB304600F004FE70BD0000093D000007
:1054A00000A1BC330200044802D0C16B00200847B1
:1054B000C26B084610470000A096000801494860EA
:1054C0007047000000000020012070470E2801D91D
:1054D0008020704700207047014800797047000025
:1054E000BC020020F3B5024600206D498BB0002AB3
:1054F0000BD0012A7ED10024486C2546072854D0C1
:10550000082855D0092858D155E06548C069FBF7EF
:10551000E7F8074600910C98FBF7E2F806900E4674
:10552000302000F06EFC4007800F02D000245D4D5B
:1055300001E000242546272000F063FC584940077D
:10554000400F098C401C4018FBF7CAF8544A20321F
:1055500009929278012A21D00022524BFAF7FCFEE0
:1055600022462B46FAF7F8FE3346069AFAF7F4FE7F
:10557000099A1279012A14D000221346FAF7ECFE98
:105580000322FBF77BF83A46009BFAF7FFFF002265
:10559000454BFAF793FF03F00BFB7DE00022134627
:1055A000DCE7002201239B07E8E700243F4D04E0ED
:1055B00000243F4D01E03F4D00248F6C0120B84096
:1055C000FBF77AF802460B4620462946FAF7DEFF3B
:1055D00002460B4600203349FAF7D8FF304E044606
:1055E00040360D46F089FBF77BF80022324BFAF784
:1055F000B3FE00E052E022462B46FAF75FFF079128
:105600000890707B001DFBF76BF805910690307BCE
:10561000002800D00220381A8000FBF761F80490BF
:105620000C980391C000B900401AB17C09014018E0
:10563000317C002900D01421401A1C30FBF750F8AF
:10564000039B049AFAF7A2FF02F0F2FC059B069A6C
:10565000FAF734FF002207460E461346FBF7A4F87C
:1056600002D23846314601E0002001460022134BA9
:10567000FAF772FE22462B46FAF720FF079B089A9C
:10568000FAF76AFE0022084BFAF718FF0C4A0D4B96
:10569000FAF762FE02F050FFFBF754F80DB0F0BDD0
:1056A000BC0200200000F03F00408F408084FE409C
:1056B00080840E4180841E41000011400000204083
:1056C0002B8716D9CEF7EF3F0520704710B503485A
:1056D000406840688047801C10BD0000000000202A
:1056E000F8B51E4D1E4928601E4801F00FFE1D48EA
:1056F0001B49143001F00AFE1A481949283001F0FC
:1057000005FE686801680120884700F0CDFBFFF7BF
:105710007FFE002000F03CFD686881682846083064
:105720008847114E002460002718F05D00F0F8FC57
:10573000B8198178407801F0DBF9641CE4B2102CD0
:10574000F1D3002000F0ECFC064900206839087114
:10575000686840688047801CF8BD00000000002099
:10576000FD5C000824030020C095000810B586B039
:1057700014216846FAF76CFD0D48019000200D4C8D
:1057800002906A4610212046FBF70EFE6A4602216F
:105790002046FBF709FE6A4601212046FBF704FE7E
:1057A00001216A4649030448FBF7FEFD06B010BD1F
:1057B00000001110000400500008005030B585B002
:1057C00014216846FAF744FD1448FFF777FE1448A1
:1057D00001900320134D0124039002946A46102186
:1057E0002846FBF7E1FD6A4602212846FBF7DCFD6F
:1057F0006A4601212846FBF7D7FD6A4661030A483D
:10580000FBF7D2FD0020029005206A462103019497
:105810000007FBF7C9FD05B030BD000020000020E7
:1058200000001110000400500008005070B50E4D2B
:1058300004460368002210212846FBF779FE002267
:10584000022128466368FBF773FE002201212846E7
:10585000A368FBF76DFE0121002249030348E368BA
:10586000FBF766FE70BD0000000400500008005009
:10587000FFB581B01D4617460E460124019800F081
:105880004FFC304600F00CFC052000F081FC0120AC
:10589000FBF72AFB01F028FD064606E0019800F020
:1058A000E1FAB84201DD002404E0304601F022FDB7
:1058B000A842F3D300F03AFF204605B0F0BD000047
:1058C000F8B50020694608708E4C2079012809D06F
:1058D000022859D12046683001F0CAFD60790128BC
:1058E0007ED100E16079002818D001284CD14021F8
:1058F000122001F0FDF8122000F083FA69460870CA
:105900000878804D8006403500286ADA2021122070
:1059100001F0EEF8A87D002879D088E0794D402686
:1059200020352879012837D13F2000F06AFA6946EE
:105930000870087880072FD40B213E2001F0D8F89A
:1059400010213F2001F0D4F828465C3001F090FD92
:10595000A879002819D00D2000F053FA30430146F1
:105960000D2001F0C5F82846703001F049FD664869
:105970000068002803D00069002800D0804700207C
:1059800028746874A0876087F8BD5E48903001F085
:105990006FFD00202071EAE7618F5C4F00290AD17A
:1059A000A08F002807D1A878002831D0322000F03D
:1059B00028FA6087618FA08F091AC9B2C01900F058
:1059C00049FA608FA0874F487C3001F051FDA879DB
:1059D000002823D00D2000F014FA3043014601E0E6
:1059E00085E02EE00D2001F083F84648903001F06C
:1059F00007FD454800680028C1D08668002EBED04B
:105A00001222AA56618F00234048B047B7E70CE046
:105A10003C4801213A3000F01DFACBE7002020710C
:105A20003848903001F024FDE3E70020207135482C
:105A30007C3001F01DFD344800680028A4D00069C6
:105A40005CE0192000F0DDF92E4E40B26036307077
:105A5000010605D5C043401C0006800E474201E008
:105A60000006870E1A2000F0CCF92949A268002F01
:105A700009DA8A4203D901110818C01907E0011197
:105A80000818C01907E08A4203D9011108189D3887
:105A900002E001110818A4386884132000F0B1F95D
:105AA0003071102000F0ADF901460D2001F020F812
:105AB0003179164800F0CEF9A87D002800D1207178
:105AC00010487C3001F0D4FC0F4800680028B5D0A5
:105AD0008468002CB2D000232222F356AA5E3179CA
